:020000040000FA
:100000000C945D000C9485000C9485000C94850084
:100010000C9485000C9485000C9485000C9485004C
:100020000C9485000C9485000C9485000C9485003C
:100030000C9485000C9485000C9485000C9485002C
:100040000C9418040C9485000C94E6030C94C003E3
:100050000C9485000C9485000C9485000C9485000C
:100060000C9485000C9485000000000024002700FB
:100070002A0000000000250028002B0004040404CE
:100080000404040402020202020203030303030342
:10009000010204081020408001020408102001021F
:1000A00004081020000000080002010000030407FB
:1000B0000000000000000000620411241FBECFEF0A
:1000C000D8E0DEBFCDBF11E0A0E0B1E0E0EFF4E1A9
:1000D00002C005900D92AE33B107D9F722E0AEE32E
:1000E000B1E001C01D92A431B207E1F710E0CDE507
:1000F000D0E004C02197FE010E94700ACC35D107E0
:10010000C9F70E94AC040C94760A0C940000AF92DC
:10011000BF92CF92DF92EF92FF920F931F93CF93F4
:10012000DF936C017B018B01040F151FEB015E0156
:10013000AE18BF08C017D10759F06991D601ED91EB
:10014000FC910190F081E02DC6010995892B79F78A
:10015000C501DF91CF911F910F91FF90EF90DF903C
:10016000CF90BF90AF900895FC01538D448D252F03
:1001700030E0842F90E0821B930B541710F0CF9641
:10018000089501970895FC01918D828D981761F073
:10019000A28DAE0FBF2FB11D5D968C91928D9F5F8A
:1001A0009F73928F90E008958FEF9FEF0895FC0169
:1001B000918D828D981731F0828DE80FF11D858D1C
:1001C00090E008958FEF9FEF0895FC01918D228DAF
:1001D000892F90E0805C9F4F821B91098F73992734
:1001E00008958FE591E00E94E50021E0892B09F454
:1001F00020E0822F089580E090E0892B29F00E9472
:10020000F10081110C9400000895FC01A48DA80F49
:10021000B92FB11DA35ABF4F2C91848D90E0019648
:100220008F739927848FA689B7892C93A089B18968
:100230008C91837080648C93938D848D981306C009
:100240000288F389E02D80818F7D80830895EF926D
:10025000FF920F931F93CF93DF93EC0181E0888F80
:100260009B8D8C8D98131AC0E889F989808185FF50
:1002700015C09FB7F894EE89FF896083E889F989F2
:1002800080818370806480839FBF81E090E0DF91F4
:10029000CF911F910F91FF90EF900895F62E0B8D47
:1002A00010E00F5F1F4F0F731127E02E8C8D8E1102
:1002B0000CC00FB607FCFACFE889F989808185FF69
:1002C000F5CFCE010E940501F1CFEB8DEC0FFD2F94
:1002D000F11DE35AFF4FF0829FB7F8940B8FEA8924
:1002E000FB8980818062CFCFCF93DF93EC01888D33
:1002F0008823B9F0AA89BB89E889F9898C9185FDA1
:1003000003C0808186FD0DC00FB607FCF7CF8C912E
:1003100085FFF2CF808185FFEDCFCE010E940501E0
:10032000E9CFDF91CF91089590E0FC01EC55FF4FAC
:100330002491FC01E057FF4F3491FC01E458FF4F3A
:10034000E491EE23C9F0222339F0233001F1A8F41F
:10035000213019F1223029F1F0E0EE0FFF1FEE58A5
:10036000FF4FA591B4918FB7F894EC91611126C01D
:1003700030953E233C938FBF08952730A9F0283055
:10038000C9F0243049F7809180008F7D03C08091AF
:1003900080008F7780938000DFCF84B58F7784BD16
:1003A000DBCF84B58F7DFBCF8091B0008F778093BA
:1003B000B000D2CF8091B0008F7DF9CF3E2BDACF45
:1003C000CF93DF9390E0FC01E057FF4F24918458D6
:1003D0009F4FFC0184918823D1F090E0880F991FF2
:1003E000FC01E859FF4FA591B491FC01EE58FF4F75
:1003F000C591D49161110EC09FB7F8948C91E22FF2
:10040000E0958E238C932881E223E8839FBFDF91C0
:10041000CF9108958FB7F894EC91E22BEC938FBFB6
:10042000F6CF8E50806480937C0080917A00806447
:1004300080937A0080917A0086FDFCCF80917800CD
:10044000909179000895089590E080E00895FC016E
:1004500001900020E9F73197AF01481B590BBC010F
:100460008CEF91E00C9487008F929F92AF92BF9295
:100470000F931F93CF93DF93CDB7DEB7A1970FB63E
:10048000F894DEBF0FBECDBF19A2423008F44AE097
:100490008E010F5D1F4F842E912CB12CA12CA50134
:1004A00094010E94F507E62FB901CA01EA30F4F47D
:1004B000E05DD801EE938D01232B242B252B79F7BA
:1004C00090E080E0109719F0CD010E942702A196DC
:1004D0000FB6F894DEBF0FBECDBFDF91CF911F9155
:1004E0000F91BF90AF909F908F900895E95CE1CFFE
:1004F000CF93DF93EC0160E08E810E94940161E074
:100500008E810E94940160E08E810E9494018BE8AC
:1005100091E00197F1F7DF91CF910895CF92DF92AB
:10052000EF92FF920F931F93CF93DF936C017C01A7
:1005300087E0E80EF11CD0E0C0E0062F10E0B80123
:100540000C2E02C0759567950A94E2F76170F70169
:1005500081917F010E9494012196C430D10579F7E1
:10056000C601DF91CF911F910F91FF90EF90DF9027
:10057000CF900C947802CF92DF92EF92FF920F937C
:100580001F93CF93DF93EC01F62E642F8C810E9492
:1005900094018D818F3F19F060E00E9494010F2D2E
:1005A00010E08F8584FF25C06E0187E0C80ED11C46
:1005B000F12CE12CB8010E2C02C0759567950A94B8
:1005C000E2F76170F60181916F010E949401FFEFE3
:1005D000EF1AFF0A88E0E816F10461F7CE01DF9117
:1005E000CF911F910F91FF90EF90DF90CF900C94DF
:1005F0007802B80184E0759567958A95E1F7CE0198
:100600000E948E026F2DCE01DF91CF911F910F912D
:10061000FF90EF90DF90CF900C948E0240E0682F17
:100620008CEF91E00C94BB02CF93DF93823029F4DE
:1006300090910B02986090930B0280930F0210929E
:10064000100280E48093110280E18093120280E521
:100650008093130261E0809100020E94E00180918A
:1006600001028F3F19F061E00E94E00161E080919A
:1006700002020E94E001CCEFD1E09E012C5F3140EC
:1006800080910B0284FD0BC084E090E02196281736
:10069000390744F461E08E810E94E001EECF88E0EA
:1006A00090E0F4CF8BE39DE00197F1F760E080915B
:1006B00000020E94940160E0809102020E94940175
:1006C000809101028F3F19F060E00E9494018091B7
:1006D0000B0284FD39C063E08CEF91E00E948E0232
:1006E000CBE4D6E4CE010197F1F763E08CEF91E023
:1006F0000E948E022197F1F763E08CEF91E00E9457
:100700008E0283E592E00197F1F762E08CEF91E0D1
:100710000E948E0280910B0280620E940E0384E090
:1007200080930C028CE00E940E0381E00E940E0375
:100730008BE39FE10197F1F782E080930D0286E061
:10074000DF91CF910C940E0380620E940E038BE424
:1007500096E40197F1F780910B0280620E940E03EC
:1007600083E592E00197F1F780910B0280620E948D
:100770000E03D0CF41E00E94BB0281E090E00895DB
:100780001F920F920FB60F9211242F933F934F9306
:100790005F936F937F938F939F93AF93BF93EF93E9
:1007A000FF938FE591E00E940501FF91EF91BF91CA
:1007B000AF919F918F917F916F915F914F913F91F9
:1007C0002F910F900FBE0F901F9018951F920F92B0
:1007D0000FB60F9211242F938F939F93EF93FF9354
:1007E000E0916F01F09170018081E0917501F091CD
:1007F000760182FD1BC09081809178018F5F8F739D
:1008000020917901821741F0E0917801F0E0E15AFE
:10081000FE4F958F80937801FF91EF919F918F917B
:100820002F910F900FBE0F901F9018958081F4CFDD
:100830001F920F920FB60F9211242F933F938F9315
:100840009F93AF93BF938091430190914401A091F6
:100850004501B09146013091420123E0230F2D372D
:1008600058F50196A11DB11D2093420180934301CB
:1008700090934401A0934501B093460180913E01BD
:1008800090913F01A0914001B09141010196A11DBD
:10089000B11D80933E0190933F01A0934001B0931E
:1008A0004101BF91AF919F918F913F912F910F90F7
:1008B0000FBE0F901F90189526E8230F0296A11DDA
:1008C000B11DD2CFEFE5F1E01382128288EE93E002
:1008D000A0E0B0E084839583A683B78386E091E0AF
:1008E0009183808385EC90E09587848784EC90E009
:1008F0009787868780EC90E0918B808B81EC90E0ED
:10090000938B828B82EC90E0958B848B86EC90E0CD
:10091000978B868B118E128E138E148EECEFF1E076
:100920001382128288E191E0918380838CE084833A
:100930008FEF85838BE086838AE0878389E08087D9
:1009400088E0818787E0828713861486158616865D
:10095000178681E00C941403789484B5826084BD7A
:1009600084B5816084BD85B5826085BD85B58160B3
:1009700085BD80916E00816080936E001092810031
:1009800080918100826080938100809181008160EC
:1009900080938100809180008160809380008091AD
:1009A000B10084608093B1008091B0008160809339
:1009B000B00080917A00846080937A0080917A0000
:1009C000826080937A0080917A00816080937A00BF
:1009D00080917A00806880937A001092C10061E073
:1009E00082E00E94E00161E083E00E94E00161E0BA
:1009F00084E00E94E00161E08DE00E94E00160E09F
:100A00008EE00E94E00160E08FE00E94E00161E082
:100A100082E00E94940161E084E00E94940160E021
:100A200083E00E94940182E00E94140380910C02F2
:100A3000982F946090930C028C600E940E03E091BA
:100A40006F01F091700182E08083E0916B01F09181
:100A50006C011082E0916D01F0916E018FEC80834A
:100A600010927701E0917301F091740186E0808328
:100A7000E0917101F0917201808180618083E09149
:100A80007101F0917201808188608083E091710131
:100A9000F0917201808180688083E0917101F09112
:100AA000720180818F7D808302E310E087EA282E27
:100AB00080E0382EC0E0D0E08FE00E941102109359
:100AC0000101009300018EE00E94110224E630E053
:100AD000DC010E94690A20E034E040E050E00E941E
:100AE000D607CA01B9010E9442096B017C01AC0121
:100AF0009B0160E070E088E492E40E94260820E018
:100B000030E040E050E40E9427084B015C018092F5
:100B10005B0190925C01A0925D01B0925E0120E0C9
:100B200030E040E05FE30E94F7090E940A097093F9
:100B30005A01609359016091570170915801072E35
:100B4000000C880B990B0E9442092AE037ED43E222
:100B50005CE30E94F7092B013C0120E030E040EF0C
:100B600051E4C501B4010E94F7099B01AC01C30126
:100B7000B2010E9427080E940A09709358016093ED
:100B800057018091530190915401A0915501B0916A
:100B9000560180934F0190935001A0935101B0935F
:100BA00052012FB7F89460914301709144018091F4
:100BB0004501909146012FBF0E9440094B015C0105
:100BC0008092530190925401A0925501B092560127
:100BD00020914B0130914C0140914D0150914E01BB
:100BE00060915B0170915C0180915D0190915E016B
:100BF0000E9426082B013C0120914F0130915001A9
:100C00004091510150915201C501B4010E94260842
:100C100020E030E04AE754E40E9498089B01AC01D0
:100C2000C301B2010E94980820E030E040E451E4A2
:100C30000E94F7090E940A092091590130915A0136
:100C40004091570150915801240F351FA901460FBB
:100C5000571FBA01550F880B990B0E9442094B018F
:100C60005C0120E030E0A9010E94930887FDB5C037
:100C70008092470190924801A0924901B0924A01A6
:100C800020E030E04FE753E4609147017091480164
:100C90008091490190914A010E94F209181664F46A
:100CA00080E090E0AAE7B3E4809347019093480185
:100CB000A0934901B0934A01E1E080910F028111B4
:100CC000E0E0E195F0E0E450FE4F848980680E9406
:100CD0000E0380E291E00E942702E0910F02E230D1
:100CE00008F084C0E150F0E0E450FE4F8489806851
:100CF0000E940E03A7019601C701B6010E94640A73
:100D0000882309F475C081E391E00E942702E091F5
:100D10000F02E23008F000C1E150F0E0E450FE4F75
:100D20008489865F80680E940E03C0900001D09085
:100D300001010D2C000CEE08FF084AE0C701B601C6
:100D4000F7FE0EC041E06DE28CEF91E00E94BB0225
:100D500066277727CB016C197D098E099F094AE028
:100D60000E94340261E082E00E94940161E084E02C
:100D70000E9494016091470170914801809149015E
:100D800090914A010E940A096B015B0161E083E0D6
:100D90000E94E001C114D10409F0C0C060E083E00A
:100DA0000E94940180915B0190915C01A0915D0192
:100DB000B0915E0180934B0190934C01A0934D0143
:100DC000B0934E01209709F477CE0E94F10088235A
:100DD00009F472CE0E9400006FCE1092470110926B
:100DE00048011092490110924A014ACFE1E07BCFBD
:100DF00046015701E894B7F82FEF3FEF4FE75FE761
:100E0000C501B4010E94640A81110DC02FEF3FEFAC
:100E10004FE75FE7C501B4010E94930818161CF460
:100E200085E391E072CF2FEF3FEF4FE75FE4C7011B
:100E3000B6010E94F20918161CF489E391E065CF0F
:100E40002FEF3FEF4FE75FECC701B6010E94930819
:100E500087FDF3CF20E030E0A901C701B6010E9471
:100E6000930887FF0AC041E06DE28CEF91E00E9499
:100E7000BB02F7FAF094F7F8F0942AE037ED43EA72
:100E80005BE3C701B6010E9427084B015C010E9489
:100E900011096B017C010E9440099B01AC01C50155
:100EA000B4010E9426084B015C014AE0C701B6016B
:100EB0000E94340241E06EE28CEF91E00E94BB029E
:100EC00020E030E040E251E4C501B4010E94F7099E
:100ED0004B015C010E9411096B01F12CE12C4AE0ED
:100EE000C701B6010E943402C701B6010E94400941
:100EF0009B01AC01C501B4010E94260820E030E04E
:100F000040E251E40E94F7090E94110990E080E05C
:100F10004AE00E943402FBCEE1E0FFCE9FEFC9160B
:100F2000D10411F461E03BCFF1018491833021F1D0
:100F300048F48130B9F08230D1F0F0E8AF16B10456
:100F40008CF72CCF873011F1883041F18430A9F72C
:100F500080918000806280938000D0928B00C0924C
:100F60008A0020CF84B5806884BDC7BC1BCF84B500
:100F7000806284BDC8BC16CF809180008068809359
:100F80008000D0928900C09288000CCF8091B00080
:100F900080688093B000C092B30004CF8091B0000D
:100FA00080628093B000C092B400FCCE052E97FB07
:100FB0001EF400940E94ED0757FD07D00E94F5072C
:100FC00007FC03D04EF40C94ED07509540953095F6
:100FD00021953F4F4F4F5F4F0895909580957095A5
:100FE00061957F4F8F4F9F4F0895A1E21A2EAA1B44
:100FF000BB1BFD010DC0AA1FBB1FEE1FFF1FA217C9
:10100000B307E407F50720F0A21BB30BE40BF50BC5
:10101000661F771F881F991F1A9469F7609570954E
:10102000809590959B01AC01BD01CF010895A29FD1
:10103000B001B39FC001A39F700D811D1124911DAC
:10104000B29F700D811D1124911D08955058BB272A
:10105000AA270E943E080C94B8090E94AA0938F0F9
:101060000E94B10920F039F49F3F19F426F40C9442
:10107000A7090EF4E095E7FB0C94A109E92F0E9463
:10108000C90958F3BA17620773078407950720F058
:1010900079F4A6F50C94EB090EF4E0950B2EBA2F1B
:1010A000A02D0B01B90190010C01CA01A00111246E
:1010B000FF27591B99F0593F50F4503E68F11A161A
:1010C000F040A22F232F342F4427585FF3CF4695AB
:1010D00037952795A795F0405395C9F77EF41F16CD
:1010E000BA0B620B730B840BBAF09150A1F0FF0F97
:1010F000BB1F661F771F881FC2F70EC0BA0F621F83
:10110000731F841F48F4879577956795B795F79572
:101110009E3F08F0B0CF9395880F08F09927EE0F07
:101120009795879508950E947D0908F481E00895B8
:101130000E94AC080C94B8090E94B10958F00E94B2
:10114000AA0940F029F45F3F29F00C94A10951113C
:101150000C94EC090C94A7090E94C90968F399231F
:10116000B1F3552391F3951B550BBB27AA276217A3
:101170007307840738F09F5F5F4F220F331F441FB0
:10118000AA1FA9F335D00E2E3AF0E0E832D09150E4
:101190005040E695001CCAF72BD0FE2F29D0660FD1
:1011A000771F881FBB1F261737074807AB07B0E814
:1011B00009F0BB0B802DBF01FF2793585F4F3AF01A
:1011C0009E3F510578F00C94A1090C94EC095F3F07
:1011D000E4F3983ED4F3869577956795B795F795A0
:1011E0009F5FC9F7880F911D9695879597F9089588
:1011F000E1E0660F771F881FBB1F62177307840724
:10120000BA0720F0621B730B840BBA0BEE1F88F732
:10121000E09508950E9411096894B1110C94EC09AD
:1012200008950E94D10988F09F5798F0B92F992707
:10123000B751B0F0E1F0660F771F881F991F1AF0C1
:10124000BA95C9F714C0B13091F00E94EB09B1E032
:1012500008950C94EB09672F782F8827B85F39F031
:10126000B93FCCF3869577956795B395D9F73EF45A
:1012700090958095709561957F4F8F4F9F4F089502
:10128000E89409C097FB3EF4909580957095619520
:101290007F4F8F4F9F4F9923A9F0F92F96E9BB27D6
:1012A0009395F695879577956795B795F111F8CF52
:1012B000FAF4BB0F11F460FF1BC06F5F7F4F8F4FBD
:1012C0009F4F16C0882311F096E911C0772321F0B3
:1012D0009EE8872F762F05C0662371F096E8862F4B
:1012E00070E060E02AF09A95660F771F881FDAF7A2
:1012F000880F9695879597F90895990F0008550FCF
:10130000AA0BE0E8FEEF16161706E807F907C0F08B
:1013100012161306E407F50798F0621B730B840B93
:10132000950B39F40A2661F0232B242B252B21F46D
:1013300008950A2609F4A140A6958FEF811D811D0D
:10134000089597F99F6780E870E060E008959FEF47
:1013500080EC089500240A9416161706180609064C
:10136000089500240A94121613061406050608951B
:10137000092E0394000C11F4882352F0BB0F40F4A3
:10138000BF2B11F460FF04C06F5F7F4F8F4F9F4FE3
:10139000089557FD9058440F551F59F05F3F71F065
:1013A0004795880F97FB991F61F09F3F79F08795CC
:1013B0000895121613061406551FF2CF4695F1DF55
:1013C00008C0161617061806991FF1CF86957105E5
:1013D000610508940895E894BB2766277727CB0119
:1013E00097F908950E947D0908F48FEF08950E94EF
:1013F0000A0A0C94B8090E94AA0938F00E94B1099F
:1014000020F0952311F00C94A1090C94A709112444
:101410000C94EC090E94C90970F3959FC1F3950FD4
:1014200050E0551F629FF001729FBB27F00DB11D68
:10143000639FAA27F00DB11DAA1F649F6627B00DF8
:10144000A11D661F829F2227B00DA11D621F739FE1
:10145000B00DA11D621F839FA00D611D221F749FEF
:101460003327A00D611D231F849F600D211D822F36
:10147000762F6A2F11249F5750409AF0F1F088235D
:101480004AF0EE0FFF1FBB1F661F771F881F91508A
:101490005040A9F79E3F510580F00C94A1090C948F
:1014A000EC095F3FE4F3983ED4F386957795679512
:1014B000B795F795E7959F5FC1F7FE2B880F911DB4
:1014C0009695879597F908950E947D09880B990B49
:1014D00008950E941708B7FF0895821B930B089583
:1014E000EE0FFF1F0590F491E02D0994F894FFCFC3
:1014F0000A000000000027018700B4007401E50025
:10150000C300D70000000000BA03870024022302B2
:10151000437572725F54202020205365745F5420FD
:0E152000006E616E00696E66006F76660000F8
:107E0000112484B714BE81FFF0D085E080938100F7
:107E100082E08093C00088E18093C10086E0809377
:107E2000C20080E18093C4008EE0C9D0259A86E02C
:107E300020E33CEF91E0309385002093840096BBD3
:107E4000B09BFECF1D9AA8958150A9F7CC24DD24C4
:107E500088248394B5E0AB2EA1E19A2EF3E0BF2EE7
:107E6000A2D0813461F49FD0082FAFD0023811F036
:107E7000013811F484E001C083E08DD089C08234E0
:107E800011F484E103C0853419F485E0A6D080C0E4
:107E9000853579F488D0E82EFF2485D0082F10E0AE
:107EA000102F00270E291F29000F111F8ED06801E7
:107EB0006FC0863521F484E090D080E0DECF843638
:107EC00009F040C070D06FD0082F6DD080E0C81688
:107ED00080E7D80618F4F601B7BEE895C0E0D1E017
:107EE00062D089930C17E1F7F0E0CF16F0E7DF06D8
:107EF00018F0F601B7BEE89568D007B600FCFDCFD4
:107F0000A601A0E0B1E02C9130E011968C91119780
:107F100090E0982F8827822B932B1296FA010C0160
:107F200087BEE89511244E5F5F4FF1E0A038BF0790
:107F300051F7F601A7BEE89507B600FCFDCF97BE46
:107F4000E89526C08437B1F42ED02DD0F82E2BD052
:107F50003CD0F601EF2C8F010F5F1F4F84911BD097
:107F6000EA94F801C1F70894C11CD11CFA94CF0C13
:107F7000D11C0EC0853739F428D08EE10CD085E9AC
:107F80000AD08FE07ACF813511F488E018D01DD067
:107F900080E101D065CF982F8091C00085FFFCCF94
:107FA0009093C60008958091C00087FFFCCF809118
:107FB000C00084FD01C0A8958091C6000895E0E648
:107FC000F0E098E1908380830895EDDF803219F02E
:107FD00088E0F5DFFFCF84E1DECF1F93182FE3DFCA
:107FE0001150E9F7F2DF1F91089580E0E8DFEE27F6
:047FF000FF270994CA
:027FFE00040479
:00000001FF
