:020000040000FA
:100000000C945D000C9485000C9485000C94850084
:100010000C9485000C9485000C9485000C9485004C
:100020000C9485000C9485000C9485000C9485003C
:100030000C9485000C9485000C9485000C9485002C
:100040000C94F2050C9485000C94C0050C949A0550
:100050000C9485000C9485000C9485000C9485000C
:100060000C9485000C9485000000000024002700FB
:100070002A0000000000250028002B0004040404CE
:100080000404040402020202020203030303030342
:10009000010204081020408001020408102001021F
:1000A00004081020000000080002010000030407FB
:1000B00000000000000000003C0611241FBECFEF2E
:1000C000D8E0DEBFCDBF11E0A0E0B1E0EEE3FDE19E
:1000D00002C005900D92AA36B107D9F722E0AAE630
:1000E000B1E001C01D92A634B207E1F710E0CDE502
:1000F000D0E004C02197FE010E94A50CCC35D107A9
:10010000C9F70E9486060C949D0E0C940000089579
:10011000AF92BF92CF92DF92EF92FF920F931F9315
:10012000CF93DF936C017B018B01040F151FEB0153
:100130005E01AE18BF08C017D10759F06991D6010A
:10014000ED91FC910190F081E02DC6010995892B7C
:1001500079F7C501DF91CF911F910F91FF90EF903B
:10016000DF90CF90BF90AF900895FC01538D448DE8
:10017000252F30E0842F90E0821B930B541710F052
:10018000CF96089501970895FC01918D828D98175F
:1001900061F0A28DAE0FBF2FB11D5D968C91928D37
:1001A0009F5F9F73928F90E008958FEF9FEF089568
:1001B0002FB7F8948091890190918A01A0918B01C9
:1001C000B0918C012FBF8093950190939601A093DD
:1001D0009701B09398018DE891E00E94C40097FFC9
:1001E00026C02FB7F8948091890190918A01A0913F
:1001F0008B01B0918C012FBF4091950150919601D8
:100200006091970170919801841B950BA60BB70B19
:1002100040919101509192016091930170919401EC
:1002200084179507A607B707B0F28FEF9FEF0895E1
:10023000FC01918D828D981731F0828DE80FF11DB0
:10024000858D90E008958FEF9FEF0895FC01918DCB
:10025000228D892F90E0805C9F4F821B91098F73C4
:10026000992708958DE891E00E94260121E0892BCD
:1002700009F420E0822F0895FC01A48DA80FB92F66
:10028000B11DA35ABF4F2C91848D90E001968F73BE
:100290009927848FA689B7892C93A089B1898C91DD
:1002A000837080648C93938D848D981306C002882C
:1002B000F389E02D80818F7D80830895EF92FF92F6
:1002C0000F931F93CF93DF93EC0181E0888F9B8D79
:1002D0008C8D98131AC0E889F989808185FF15C033
:1002E0009FB7F894EE89FF896083E889F989808156
:1002F0008370806480839FBF81E090E0DF91CF9125
:100300001F910F91FF90EF900895F62E0B8D10E046
:100310000F5F1F4F0F731127E02E8C8D8E110CC0B5
:100320000FB607FCFACFE889F989808185FFF5CF00
:10033000CE010E943C01F1CFEB8DEC0FFD2FF11DA2
:10034000E35AFF4FF0829FB7F8940B8FEA89FB893D
:1003500080818062CFCFCF93DF93EC01888D88239B
:10036000B9F0AA89BB89E889F9898C9185FD03C018
:10037000808186FD0DC00FB607FCF7CF8C9185FFFD
:10038000F2CF808185FFEDCFCE010E943C01E9CF05
:10039000DF91CF91089590E0FC01EC55FF4F24913F
:1003A000FC01E057FF4F3491FC01E458FF4FE4910A
:1003B000EE23C9F0222339F0233001F1A8F42130D3
:1003C00019F1223029F1F0E0EE0FFF1FEE58FF4F38
:1003D000A591B4918FB7F894EC91611126C0309536
:1003E0003E233C938FBF08952730A9F02830C9F0F1
:1003F000243049F7809180008F7D03C08091800078
:100400008F7780938000DFCF84B58F7784BDDBCF7B
:1004100084B58F7DFBCF8091B0008F778093B00043
:10042000D2CF8091B0008F7DF9CF3E2BDACFCF9322
:10043000DF9390E0FC01E057FF4F249184589F4FD9
:10044000FC0184918823D1F090E0880F991FFC0172
:10045000E859FF4FA591B491FC01EE58FF4FC591AB
:10046000D49161110EC09FB7F8948C91E22FE09562
:100470008E238C932881E223E8839FBFDF91CF9165
:1004800008958FB7F894EC91E22BEC938FBFF6CFE1
:100490003FB7F89480916B0190916C01A0916D0130
:1004A000B0916E0126B5A89B05C02F3F19F00196AB
:1004B000A11DB11D3FBFBA2FA92F982F8827BC01BE
:1004C000CD01620F711D811D911D42E0660F771FE6
:1004D000881F991F4A95D1F7089590E080E008950C
:1004E000CF93DF93EC0160E08E810E94CB0161E04D
:1004F0008E810E94CB0160E08E810E94CB018BE84F
:1005000091E00197F1F7DF91CF910895CF92DF92BB
:10051000EF92FF920F931F93CF93DF936C017C01B7
:1005200087E0E80EF11CD0E0C0E0062F10E0B80133
:100530000C2E02C0759567950A94E2F76170F70179
:1005400081917F010E94CB012196C430D10579F7BA
:10055000C601DF91CF911F910F91FF90EF90DF9037
:10056000CF900C947002CF92DF92EF92FF920F9394
:100570001F93CF93DF93EC01F62E642F8C810E94A2
:10058000CB018D818F3F19F060E00E94CB010F2DD0
:1005900010E08F8584FF25C06E0187E0C80ED11C56
:1005A000F12CE12CB8010E2C02C0759567950A94C8
:1005B000E2F76170F60181916F010E94CB01FFEFBC
:1005C000EF1AFF0A88E0E816F10461F7CE01DF9127
:1005D000CF911F910F91FF90EF90DF90CF900C94EF
:1005E0007002B80184E0759567958A95E1F7CE01B0
:1005F0000E9486026F2DCE01DF91CF911F910F9146
:10060000FF90EF90DF90CF900C94860240E0682F2F
:100610008AE292E00C94B30281E00E9406038BE32D
:100620009FE10197F1F70895CF93DF93823029F48A
:100630009091390298609093390280933D02109214
:100640003E0280E480933F0280E18093400280E597
:100650008093410261E080912E020E9417028091F6
:100660002F028F3F19F061E00E94170261E0809134
:1006700030020E941702CAE2D2E09E012A523240A2
:100680008091390284FD0BC084E090E02196281708
:10069000390744F461E08E810E941702EECF88E0B2
:1006A00090E0F4CF8BE39DE00197F1F760E080915B
:1006B0002E020E94CB0160E0809130020E94CB01AB
:1006C00080912F028F3F19F060E00E94CB01809152
:1006D000390284FD34C063E08AE292E00E9486021F
:1006E000CBE4D6E4CE010197F1F763E08AE292E031
:1006F0000E9486022197F1F763E08AE292E00E946D
:10070000860283E592E00197F1F762E08AE292E0E7
:100710000E9486028091390280620E94060384E072
:1007200080933A028CE00E9406030E940C0382E050
:1007300080933B0286E0DF91CF910C9406038062A8
:100740000E9406038BE496E40197F1F78091390249
:1007500080620E94060383E592E00197F1F78091A1
:10076000390280620E940603D5CF90913D0269173D
:1007700010F06FEF690FE62FF0E0E65DFD4F948912
:10078000890F80680C94060341E00E94B30281E067
:1007900090E008950F931F93CF93DF93EC0188812E
:1007A0009981009759F02A813B812617370730F04D
:1007B00081E0DF91CF911F910F9108958B016F5FC1
:1007C0007F4F0E94D00D009759F0998388831B8337
:1007D0000A832C813D81232B59F7FC011082E8CF3D
:1007E00080E0E7CFFB0101900020E9F73197AF01EE
:1007F000461B570BDC01ED91FC910280F381E02D4B
:1008000009948F929F92AF92BF920F931F93CF93B1
:10081000DF93CDB7DEB7A1970FB6F894DEBF0FBE5A
:10082000CDBF19A2423008F44AE08E010F5D1F4F80
:10083000842E912CB12CA12CA50194010E944E0B69
:10084000E62FB901CA01EA3004F5E05DD801EE9364
:100850008D01232B242B252B79F790E080E0109736
:1008600029F0BD018AE292E00E94F203A1960FB640
:10087000F894DEBF0FBECDBFDF91CF911F910F91D6
:10088000BF90AF909F908F900895E95CDFCF0F935A
:100890001F93CF93DF93EC01FB014481558160816D
:1008A0007181E881F9810280F381E02D09958C0145
:1008B00064E271E0CE010E94F203800F911FDF918C
:1008C000CF911F910F9108958F929F92AF92BF92F7
:1008D000CF92DF92EF92FF920F931F93CF93DF930C
:1008E000CDB7DEB72E970FB6F894DEBF0FBECDBFE3
:1008F00018861F821A8619861C861B8670E060E0A7
:10090000CE0107960E94CA032F813885811147C006
:100910002115310519F0C9010E94470D18861F8263
:100920001C861B861A8619861A8219821C821B82D3
:100930001E821D8270E060E0CE0101960E94CA0313
:1009400029813A81811133C02115310519F0C9017E
:100950000E94470D1A8219821E821D821C821B82F0
:100960000E94D80097FD2BC08D871E860D811E81A9
:100970000F5F1F4FB801CE0101960E94CA03882362
:1009800079F329813A818D819E81BE01635F7F4F1A
:10099000820F931F0E94960E1E830D83E1CF1C864B
:1009A0001B8666E271E0C9010E94960EBDCF1E82D1
:1009B0001D8266E271E0C9010E94960ED1CF8F813F
:1009C0009885009709F49BC069817A81611571054A
:1009D00009F493C049855A852D813E8142175307FA
:1009E00008F48BC00E94960E8D819E819C878B8718
:1009F0001E821D8289819A81009711F00E94470D05
:100A00008F819885009709F48BC00E949809709394
:100A10008801609387010E940C0367E271E08AE21B
:100A200092E00E94F20364E271E08AE292E00E94A6
:100A3000F20361E080E00E94B503BE01695F7F4F71
:100A40008AE292E00E94470464E271E08DE891E05E
:100A50000E94F20367E271E08DE891E00E94F203E8
:100A6000BE01695F7F4F8DE891E00E94470469E312
:100A700071E08DE891E00E94F2030E9448024B0170
:100A80005C0180EDC82E87E0D82EE12CF12C0E946D
:100A90004802681979098A099B09683E73408105F3
:100AA0009105A8F321E0C21AD108E108F10888EE07
:100AB000880E83E0981EA11CB11CC114D104E1046E
:100AC000F10429F70E940C038F819885009711F09B
:100AD0000E94470D2E960FB6F894DEBF0FBECDBF15
:100AE000DF91CF911F910F91FF90EF90DF90CF900A
:100AF000BF90AF909F908F9008950E94470D89817D
:100B00009A8198878F838B819C819A8789878D8131
:100B10009E819C878B871A8219821C821B8268CFD8
:100B200060E070E0CB0173CF0E94320181110C9420
:100B3000640408951F920F920FB60F9211242F9301
:100B40003F934F935F936F937F938F939F93AF9355
:100B5000BF93EF93FF938DE891E00E943C01FF91DA
:100B6000EF91BF91AF919F918F917F916F915F9125
:100B70004F913F912F910F900FBE0F901F9018959E
:100B80001F920F920FB60F9211242F938F939F9362
:100B9000EF93FF93E0919D01F0919E018081E091A0
:100BA000A301F091A40182FD1BC090818091A60158
:100BB0008F5F8F732091A701821741F0E091A6010A
:100BC000F0E0E357FE4F958F8093A601FF91EF91E0
:100BD0009F918F912F910F900FBE0F901F9018959E
:100BE0008081F4CF1F920F920FB60F9211242F9392
:100BF0003F938F939F93AF93BF938091890190917F
:100C00008A01A0918B01B0918C0130916A0123E09F
:100C1000230F2D3758F50196A11DB11D20936A01B0
:100C20008093890190938A01A0938B01B0938C01EA
:100C300080916B0190916C01A0916D01B0916E015A
:100C40000196A11DB11D80936B0190936C01A0933F
:100C50006D01B0936E01BF91AF919F918F913F91C4
:100C60002F910F900FBE0F901F90189526E8230F1D
:100C70000296A11DB11DD2CFEDE8F1E013821282E0
:100C800088EE93E0A0E0B0E084839583A683B783E9
:100C90008AE091E09183808385EC90E0958784875A
:100CA00084EC90E09787868780EC90E0918B808B36
:100CB00081EC90E0938B828B82EC90E0958B848B1F
:100CC00086EC90E0978B868B118E128E138E148E8D
:100CD000EAE2F2E0138212828CE191E09183808358
:100CE0008CE084838FEF85838BE086838AE0878323
:100CF00089E0808788E0818787E082871386148671
:100D000015861686178681E00C941403789484B5B2
:100D1000826084BD84B5816084BD85B5826085BDF7
:100D200085B5816085BD80916E00816080936E0085
:100D30001092810080918100826080938100809177
:100D40008100816080938100809180008160809328
:100D500080008091B10084608093B1008091B000E8
:100D600081608093B00080917A00846080937A00E3
:100D700080917A00826080937A0080917A0081600D
:100D800080937A0080917A00806880937A00109234
:100D9000C10061E082E00E94170261E083E00E94EE
:100DA000170261E084E00E94170261E08DE00E947A
:100DB000170260E08EE00E94170261E082E00E946C
:100DC000CB0161E084E00E94CB0160E083E00E94FF
:100DD000CB0182E00E94140380913A02982F946024
:100DE00090933A028C600E940603E0919D01F0917D
:100DF0009E0182E08083E0919901F0919A01108236
:100E0000E0919B01F0919C018FEC80831092A501F1
:100E1000E091A101F091A20186E08083E0919F0121
:100E2000F091A001808180618083E0919F01F09129
:100E3000A001808188608083E0919F01F091A001F2
:100E4000808180688083E0919F01F091A001808182
:100E50008F7D808369E371E08DE891E00E94F20369
:100E600010E4C7EAD0E010937C0080917A0080649F
:100E700080937A0080917A0086FDFCCF8091780083
:100E8000A0917900BA2FA82F24E630E00E949E0C92
:100E900020E034E040E050E00E94F80ACA01B901C5
:100EA0000E94DB096B017C016091870170918801D0
:100EB000072E000C880B990B0E94DB09A7019601F5
:100EC0000E947F0B20E030E040E85FE30E94800B4F
:100ED0004B015C018092830190928401A092850174
:100EE000B092860120E030E040E05FE30E943A0AE1
:100EF0000E945E0C709382016093810160917F017A
:100F000070918001072E000C880B990B0E94DB0961
:100F10002AE037ED43E25CE30E943A0A2B013C01F0
:100F200020E030E040EF51E4C501B4010E943A0AEC
:100F30009B01AC01C301B2010E94800B0E945E0CB8
:100F40007093800160937F0180917B0190917C017F
:100F5000A0917D01B0917E018093770190937801FB
:100F6000A0937901B0937A012FB7F8946091890129
:100F700070918A0180918B0190918C012FBF0E940A
:100F8000D9094B015C0180927B0190927C01A09277
:100F90007D01B0927E0120917301309174014091E6
:100FA0007501509176016091830170918401809167
:100FB0008501909186010E947F0B2B013C012091BD
:100FC0007701309178014091790150917A01C50102
:100FD000B4010E947F0B20E030E04AE754E40E9415
:100FE000EC0B9B01AC01C301B2010E94EC0B20E0B1
:100FF00030E040E451E40E943A0A0E945E0C4091C5
:1010000081015091820120917F0130918001240F54
:10101000351F620F731F072E000C880B990B0E945F
:10102000DB094B015C0120E030E0A9010E94D409FA
:1010300087FDB4C080926F0190927001A0927101FF
:10104000B092720120E030E04FE753E460916F010D
:101050007091700180917101909172010E94940CC5
:10106000181664F480E090E0AAE7B3E480936F017F
:1010700090937001A0937101B093720160E080E0E1
:101080000E94B5036DE471E08AE292E00E94F203EF
:1010900061E080E00E94B503A7019601C701B60197
:1010A0000E94990C6EE571E081111BC04601570149
:1010B000E894B7F82FEF3FEF4FE75FE7C501B401C2
:1010C0000E94990C811173C02FEF3FEF4FE75FE74C
:1010D000C501B4010E94D40918160CF068C062E67C
:1010E00071E08AE292E00E94F20361E08AE00E94ED
:1010F000B503C0908701D09088010D2C000CEE083C
:10110000FF084AE0C701B601F7FE0EC041E06DE2FC
:101110008AE292E00E94B30266277727CB016C191E
:101120007D098E099F094AE00E94010461E082E086
:101130000E94CB0161E084E00E94CB0160916F01CD
:101140007091700180917101909172010E945E0C0A
:101150006B015B0161E083E00E941702C114D104BE
:1011600009F09EC060E083E00E94CB018091830182
:1011700090918401A0918501B091860180937301C3
:1011800090937401A0937501B09376010E9432018F
:10119000882309F468CE0E94640465CE10926F0122
:1011A0001092700110927101109272014BCF2FEFCB
:1011B0003FEF4FE75FE4C701B6010E94940C181699
:1011C0001CF466E671E08DCF2FEF3FEF4FE75FEC49
:1011D000C701B6010E94D40987FDF3CF20E030E0BB
:1011E000A901C701B6010E94D40987FF0AC041E0E6
:1011F0006DE28AE292E00E94B302F7FAF094F7F807
:10120000F0942AE037ED43EA5BE3C701B6010E94A0
:10121000800B4B015C010E94650C6B017C010E94FC
:10122000D9099B01AC01C501B4010E947F0B4B01A0
:101230005C014AE0C701B6010E94010441E06EE290
:101240008AE292E00E94B30220E030E040E251E402
:10125000C501B4010E943A0A4B015C010E94650C71
:101260006B01F12CE12C4AE0C701B6010E94010498
:10127000C701B6010E94D9099B01AC01C501B401A7
:101280000E947F0B20E030E040E251E40E943A0AE5
:101290000E94650C90E080E04AE00E94010425CFA6
:1012A0009FEFC916D10411F461E05DCFFE01849176
:1012B000833021F148F48130B9F08230D1F0F0E888
:1012C000AF16B1048CF74ECF873011F1883041F161
:1012D0008430A9F780918000806280938000D09252
:1012E0008B00C0928A0042CF84B5806884BDC7BCA1
:1012F0003DCF84B5806284BDC8BC38CF809180006A
:10130000806880938000D0928900C09288002ECFA0
:101310008091B00080688093B000C092B30026CF67
:101320008091B00080628093B000C092B4001ECF64
:101330001F93FC0199278827BC01E8941191103272
:10134000E9F3193010F01E30C8F31B3251F01D3292
:1013500049F4689406C00E94BF09610F711D811D88
:10136000911D119110531A30B0F33EF49095809571
:10137000709561957F4F8F4F9F4F1F910895592F03
:10138000482F372F262F660F771F881F991F660F4C
:10139000771F881F991F620F731F841F951F660F89
:1013A000771F881F991F08950E94160A08F481E08C
:1013B0000895E89409C097FB3EF490958095709548
:1013C00061957F4F8F4F9F4F9923A9F0F92F96E991
:1013D000BB279395F695879577956795B795F11106
:1013E000F8CFFAF4BB0F11F460FF1BC06F5F7F4FA3
:1013F0008F4F9F4F16C0882311F096E911C07723B5
:1014000021F09EE8872F762F05C0662371F096E8BD
:10141000862F70E060E02AF09A95660F771F881F8C
:10142000DAF7880F9695879597F90895990F000830
:10143000550FAA0BE0E8FEEF16161706E807F907A6
:10144000C0F012161306E407F50798F0621B730B41
:10145000840B950B39F40A2661F0232B242B252BC2
:1014600021F408950A2609F4A140A6958FEF811D65
:10147000811D08950E944D0A0C94BE0A0E94B00A74
:1014800038F00E94B70A20F0952311F00C94A70AB7
:101490000C94AD0A11240C94F20A0E94CF0A70F346
:1014A000959FC1F3950F50E0551F629FF001729F09
:1014B000BB27F00DB11D639FAA27F00DB11DAA1F18
:1014C000649F6627B00DA11D661F829F2227B00D65
:1014D000A11D621F739FB00DA11D621F839FA00DF0
:1014E000611D221F749F3327A00D611D231F849F40
:1014F000600D211D822F762F6A2F11249F57504097
:101500009AF0F1F088234AF0EE0FFF1FBB1F661F11
:10151000771F881F91505040A9F79E3F510580F0DA
:101520000C94A70A0C94F20A5F3FE4F3983ED4F3BC
:10153000869577956795B795F795E7959F5FC1F77E
:10154000FE2B880F911D9695879597F9089597F929
:101550009F6780E870E060E008959FEF80EC089559
:1015600000240A9416161706180609060895002482
:101570000A9412161306140605060895092E0394FC
:10158000000C11F4882352F0BB0F40F4BF2B11F470
:1015900060FF04C06F5F7F4F8F4F9F4F089557FDCF
:1015A0009058440F551F59F05F3F71F04795880FD1
:1015B00097FB991F61F09F3F79F087950895121668
:1015C00013061406551FF2CF4695F1DF08C0161614
:1015D00017061806991FF1CF8695710561050894C5
:1015E0000895E894BB2766277727CB0197F90895DC
:1015F000052E97FB1EF400940E940F0B57FD07D099
:101600000E944E0B07FC03D04EF40C940F0B509528
:101610004095309521953F4F4F4F5F4F08959095DE
:101620008095709561957F4F8F4F9F4F08952F92B2
:101630003F924F925F926F927F928F929F92AF9262
:10164000BF92CF92DF92EF92FF920F931F93CF93AF
:10165000DF93CDB7DEB7CA1BDB0B0FB6F894DEBF46
:101660000FBECDBF09942A88398848885F846E846C
:101670007D848C849B84AA84B984C884DF80EE80B6
:10168000FD800C811B81AA81B981CE0FD11D0FB6BF
:10169000F894DEBF0FBECDBFED010895A1E21A2E72
:1016A000AA1BBB1BFD010DC0AA1FBB1FEE1FFF1F06
:1016B000A217B307E407F50720F0A21BB30BE40B56
:1016C000F50B661F771F881F991F1A9469F760959D
:1016D0007095809590959B01AC01BD01CF01089557
:1016E000A29FB001B39FC001A39F700D811D112463
:1016F000911DB29F700D811D1124911D08955058A8
:10170000BB27AA270E94970B0C94BE0A0E94B00A1E
:1017100038F00E94B70A20F039F49F3F19F426F4FC
:101720000C94AD0A0EF4E095E7FB0C94A70AE92FA0
:101730000E94CF0A58F3BA17620773078407950708
:1017400020F079F4A6F50C94F10A0EF4E0950B2E36
:10175000BA2FA02D0B01B90190010C01CA01A00103
:101760001124FF27591B99F0593F50F4503E68F15E
:101770001A16F040A22F232F342F4427585FF3CF9F
:10178000469537952795A795F0405395C9F77EF470
:101790001F16BA0B620B730B840BBAF09150A1F0B9
:1017A000FF0FBB1F661F771F881FC2F70EC0BA0F3F
:1017B000621F731F841F48F4879577956795B795C7
:1017C000F7959E3F08F0B0CF9395880F08F09927C2
:1017D000EE0F9795879508950E94000C0C94BE0A11
:1017E0000E94B70A58F00E94B00A40F029F45F3F07
:1017F00029F00C94A70A51110C94F20A0C94AD0A2A
:101800000E94CF0A68F39923B1F3552391F3951BF6
:10181000550BBB27AA2762177307840738F09F5F11
:101820005F4F220F331F441FAA1FA9F335D00E2E7E
:101830003AF0E0E832D091505040E695001CCAF7EB
:101840002BD0FE2F29D0660F771F881FBB1F2617AE
:1018500037074807AB07B0E809F0BB0B802DBF0185
:10186000FF2793585F4F3AF09E3F510578F00C9454
:10187000A70A0C94F20A5F3FE4F3983ED4F38695EE
:1018800077956795B795F7959F5FC9F7880F911D75
:101890009695879597F90895E1E0660F771F881F61
:1018A000BB1F621773078407BA0720F0621B730B14
:1018B000840BBA0BEE1F88F7E09508950E94650C23
:1018C0006894B1110C94F20A08950E94D70A88F026
:1018D0009F5798F0B92F9927B751B0F0E1F0660FF4
:1018E000771F881F991F1AF0BA95C9F714C0B13035
:1018F00091F00E94F10AB1E008950C94F10A672F6B
:10190000782F8827B85F39F0B93FCCF38695779563
:101910006795B395D9F73EF490958095709561954C
:101920007F4F8F4F9F4F08950E94160A08F48FEF44
:1019300008950E94160A880B990B08950E94700B57
:10194000B7FF0895821B930B0895EE0FFF1F0590BC
:10195000F491E02D09940F931F93CF93DF9382307E
:10196000910510F482E090E0E0914402F09145028C
:1019700030E020E0B0E0A0E0309799F42115310587
:1019800009F44AC0281B390B24303105D8F58A8167
:101990009B816115710589F1FB0193838283FE01AF
:1019A00011C0408151810281138148175907E0F02D
:1019B0004817590799F4109761F012960C931297F3
:1019C00013961C933296CF01DF91CF911F910F9107
:1019D00008950093440210934502F4CF2115310578
:1019E00051F04217530738F0A901DB019A01BD01FC
:1019F000DF01F801C1CFEF01F9CF90934502809349
:101A00004402CDCFFE01E20FF31F81939193225048
:101A1000310939832883D7CF209142023091430284
:101A2000232B41F4209102013091030130934302B2
:101A300020934202209100013091010121153105CE
:101A400041F42DB73EB74091040150910501241B8C
:101A5000350BE0914202F0914302E217F307A0F444
:101A60002E1B3F0B2817390778F0AC014E5F5F4FF4
:101A70002417350748F04E0F5F1F509343024093E1
:101A80004202819391939FCFF0E0E0E09CCFCF930F
:101A9000DF930097E9F0FC01329713821282A09144
:101AA0004402B0914502ED0130E020E01097A1F42E
:101AB00020813181820F931F209142023091430295
:101AC0002817390709F061C0F0934302E0934202FE
:101AD000DF91CF910895EA01CE17DF07E8F54A813B
:101AE0005B819E0141155105B1F7E901FB83EA8352
:101AF00049915991C40FD51FEC17FD0761F48081FE
:101B000091810296840F951FE901998388838281D0
:101B100093819B838A83F0E0E0E012968D919C9103
:101B200013970097B9F52D913C911197CD0102962D
:101B3000820F931F209142023091430228173907E8
:101B400039F6309751F51092450210924402B09345
:101B50004302A0934202BCCFD383C2834081518110
:101B6000840F951FC817D90761F44E5F5F4F8881B6
:101B70009981480F591F518340838A819B819383A8
:101B800082832115310509F0B0CFF0934502E0932F
:101B900044029ECFFD01DC01C0CF13821282D7CF59
:101BA000B0E0A0E0E6EDFDE00C94190B8C0100978D
:101BB00051F4CB010E94AB0C8C01C801CDB7DEB74C
:101BC000E0E10C94350BFC01E60FF71F9C0122505D
:101BD0003109E217F30708F49DC0D901CD91DC91DA
:101BE0001197C617D70798F0C530D10530F3CE014D
:101BF00004978617970708F3C61BD70B2297C19344
:101C0000D1936D937C93CF010E94470DD6CF5B019A
:101C1000AC1ABD0A4C018C0E9D1EA0914402B091DD
:101C20004502512C412CF12CE12C109731F580917B
:101C30004202909143028815990509F05CC046164E
:101C4000570608F058C0809100019091010100975B
:101C500041F48DB79EB74091040150910501841B5A
:101C6000950BE817F90708F055C0F0934302E0938D
:101C70004202F90171836083A0CF8D919C911197ED
:101C800012966C90129713967C901397A815B9052D
:101C900059F56C0142E0C40ED11CCA14DB0420F1DA
:101CA000AC014A195B09DA011296159780F062823D
:101CB000738251834083D9016D937C93E114F104C5
:101CC00071F0D7011396FC93EE93129776CF22967C
:101CD0008C0F9D1FF90191838083F301EFCFF09367
:101CE0004502E093440269CF4816590608F42C01D6
:101CF0007D01D3019ACFCB010E94AB0C7C010097F0
:101D000049F0AE01B8010E948D0EC8010E94470D36
:101D1000870153CF10E000E050CFFB01DC0102C08F
:101D200001900D9241505040D8F70895FB01DC011D
:101D300001900D920020E1F70895F894FFCF000084
:101D400046028000000000005E018800B500AB0183
:101D50002601C400180100000000C40388006D02C1
:101D600087000D0A0054656D706572617475726547
:101D7000205365743A2000456E7465722054656D79
:101D800070657261747572653E2000437572725F92
:101D900054202020205365745F5420006E616E0033
:081DA000696E66006F766600B3
:107E0000112484B714BE81FFF0D085E080938100F7
:107E100082E08093C00088E18093C10086E0809377
:107E2000C20080E18093C4008EE0C9D0259A86E02C
:107E300020E33CEF91E0309385002093840096BBD3
:107E4000B09BFECF1D9AA8958150A9F7CC24DD24C4
:107E500088248394B5E0AB2EA1E19A2EF3E0BF2EE7
:107E6000A2D0813461F49FD0082FAFD0023811F036
:107E7000013811F484E001C083E08DD089C08234E0
:107E800011F484E103C0853419F485E0A6D080C0E4
:107E9000853579F488D0E82EFF2485D0082F10E0AE
:107EA000102F00270E291F29000F111F8ED06801E7
:107EB0006FC0863521F484E090D080E0DECF843638
:107EC00009F040C070D06FD0082F6DD080E0C81688
:107ED00080E7D80618F4F601B7BEE895C0E0D1E017
:107EE00062D089930C17E1F7F0E0CF16F0E7DF06D8
:107EF00018F0F601B7BEE89568D007B600FCFDCFD4
:107F0000A601A0E0B1E02C9130E011968C91119780
:107F100090E0982F8827822B932B1296FA010C0160
:107F200087BEE89511244E5F5F4FF1E0A038BF0790
:107F300051F7F601A7BEE89507B600FCFDCF97BE46
:107F4000E89526C08437B1F42ED02DD0F82E2BD052
:107F50003CD0F601EF2C8F010F5F1F4F84911BD097
:107F6000EA94F801C1F70894C11CD11CFA94CF0C13
:107F7000D11C0EC0853739F428D08EE10CD085E9AC
:107F80000AD08FE07ACF813511F488E018D01DD067
:107F900080E101D065CF982F8091C00085FFFCCF94
:107FA0009093C60008958091C00087FFFCCF809118
:107FB000C00084FD01C0A8958091C6000895E0E648
:107FC000F0E098E1908380830895EDDF803219F02E
:107FD00088E0F5DFFFCF84E1DECF1F93182FE3DFCA
:107FE0001150E9F7F2DF1F91089580E0E8DFEE27F6
:047FF000FF270994CA
:027FFE00040479
:00000001FF
